{
  "_format": "hh-sol-artifact-1",
  "contractName": "DecentradeMarketplace",
  "sourceName": "contracts/Marketplace.sol",
  "abi": [
    {
      "inputs": [],
      "stateMutability": "nonpayable",
      "type": "constructor"
    },
    {
      "inputs": [
        {
          "internalType": "address",
          "name": "owner",
          "type": "address"
        }
      ],
      "name": "OwnableInvalidOwner",
      "type": "error"
    },
    {
      "inputs": [
        {
          "internalType": "address",
          "name": "account",
          "type": "address"
        }
      ],
      "name": "OwnableUnauthorizedAccount",
      "type": "error"
    },
    {
      "inputs": [],
      "name": "ReentrancyGuardReentrantCall",
      "type": "error"
    },
    {
      "anonymous": false,
      "inputs": [
        {
          "indexed": true,
          "internalType": "uint256",
          "name": "itemId",
          "type": "uint256"
        },
        {
          "indexed": true,
          "internalType": "address",
          "name": "nftContract",
          "type": "address"
        },
        {
          "indexed": true,
          "internalType": "uint256",
          "name": "tokenId",
          "type": "uint256"
        },
        {
          "indexed": false,
          "internalType": "address",
          "name": "seller",
          "type": "address"
        },
        {
          "indexed": false,
          "internalType": "address",
          "name": "owner",
          "type": "address"
        },
        {
          "indexed": false,
          "internalType": "uint256",
          "name": "price",
          "type": "uint256"
        },
        {
          "indexed": false,
          "internalType": "bool",
          "name": "sold",
          "type": "bool"
        }
      ],
      "name": "MarketItemCreated",
      "type": "event"
    },
    {
      "anonymous": false,
      "inputs": [
        {
          "indexed": true,
          "internalType": "uint256",
          "name": "itemId",
          "type": "uint256"
        },
        {
          "indexed": true,
          "internalType": "address",
          "name": "nftContract",
          "type": "address"
        },
        {
          "indexed": true,
          "internalType": "uint256",
          "name": "tokenId",
          "type": "uint256"
        },
        {
          "indexed": false,
          "internalType": "address",
          "name": "seller",
          "type": "address"
        },
        {
          "indexed": false,
          "internalType": "address",
          "name": "owner",
          "type": "address"
        },
        {
          "indexed": false,
          "internalType": "uint256",
          "name": "price",
          "type": "uint256"
        }
      ],
      "name": "MarketItemSold",
      "type": "event"
    },
    {
      "anonymous": false,
      "inputs": [
        {
          "indexed": true,
          "internalType": "address",
          "name": "previousOwner",
          "type": "address"
        },
        {
          "indexed": true,
          "internalType": "address",
          "name": "newOwner",
          "type": "address"
        }
      ],
      "name": "OwnershipTransferred",
      "type": "event"
    },
    {
      "inputs": [],
      "name": "fetchItemsCreated",
      "outputs": [
        {
          "components": [
            {
              "internalType": "uint256",
              "name": "itemId",
              "type": "uint256"
            },
            {
              "internalType": "address",
              "name": "nftContract",
              "type": "address"
            },
            {
              "internalType": "uint256",
              "name": "tokenId",
              "type": "uint256"
            },
            {
              "internalType": "address payable",
              "name": "seller",
              "type": "address"
            },
            {
              "internalType": "address payable",
              "name": "owner",
              "type": "address"
            },
            {
              "internalType": "uint256",
              "name": "price",
              "type": "uint256"
            },
            {
              "internalType": "bool",
              "name": "sold",
              "type": "bool"
            }
          ],
          "internalType": "struct DecentradeMarketplace.MarketItem[]",
          "name": "",
          "type": "tuple[]"
        }
      ],
      "stateMutability": "view",
      "type": "function"
    },
    {
      "inputs": [],
      "name": "fetchMarketItems",
      "outputs": [
        {
          "components": [
            {
              "internalType": "uint256",
              "name": "itemId",
              "type": "uint256"
            },
            {
              "internalType": "address",
              "name": "nftContract",
              "type": "address"
            },
            {
              "internalType": "uint256",
              "name": "tokenId",
              "type": "uint256"
            },
            {
              "internalType": "address payable",
              "name": "seller",
              "type": "address"
            },
            {
              "internalType": "address payable",
              "name": "owner",
              "type": "address"
            },
            {
              "internalType": "uint256",
              "name": "price",
              "type": "uint256"
            },
            {
              "internalType": "bool",
              "name": "sold",
              "type": "bool"
            }
          ],
          "internalType": "struct DecentradeMarketplace.MarketItem[]",
          "name": "",
          "type": "tuple[]"
        }
      ],
      "stateMutability": "view",
      "type": "function"
    },
    {
      "inputs": [],
      "name": "fetchMyNFTs",
      "outputs": [
        {
          "components": [
            {
              "internalType": "uint256",
              "name": "itemId",
              "type": "uint256"
            },
            {
              "internalType": "address",
              "name": "nftContract",
              "type": "address"
            },
            {
              "internalType": "uint256",
              "name": "tokenId",
              "type": "uint256"
            },
            {
              "internalType": "address payable",
              "name": "seller",
              "type": "address"
            },
            {
              "internalType": "address payable",
              "name": "owner",
              "type": "address"
            },
            {
              "internalType": "uint256",
              "name": "price",
              "type": "uint256"
            },
            {
              "internalType": "bool",
              "name": "sold",
              "type": "bool"
            }
          ],
          "internalType": "struct DecentradeMarketplace.MarketItem[]",
          "name": "",
          "type": "tuple[]"
        }
      ],
      "stateMutability": "view",
      "type": "function"
    },
    {
      "inputs": [
        {
          "internalType": "uint256",
          "name": "tokenId",
          "type": "uint256"
        }
      ],
      "name": "getOwnershipHistory",
      "outputs": [
        {
          "internalType": "address[]",
          "name": "",
          "type": "address[]"
        }
      ],
      "stateMutability": "view",
      "type": "function"
    },
    {
      "inputs": [],
      "name": "listingFee",
      "outputs": [
        {
          "internalType": "uint256",
          "name": "",
          "type": "uint256"
        }
      ],
      "stateMutability": "view",
      "type": "function"
    },
    {
      "inputs": [],
      "name": "marketplaceOwner",
      "outputs": [
        {
          "internalType": "address payable",
          "name": "",
          "type": "address"
        }
      ],
      "stateMutability": "view",
      "type": "function"
    },
    {
      "inputs": [],
      "name": "owner",
      "outputs": [
        {
          "internalType": "address",
          "name": "",
          "type": "address"
        }
      ],
      "stateMutability": "view",
      "type": "function"
    },
    {
      "inputs": [],
      "name": "renounceOwnership",
      "outputs": [],
      "stateMutability": "nonpayable",
      "type": "function"
    },
    {
      "inputs": [
        {
          "internalType": "address",
          "name": "newOwner",
          "type": "address"
        }
      ],
      "name": "transferOwnership",
      "outputs": [],
      "stateMutability": "nonpayable",
      "type": "function"
    }
  ],
  "bytecode": "0x60806040526658d15e1762800060045534801561001b57600080fd5b506001600055338061004757604051631e4fbdf760e01b81526000600482015260240160405180910390fd5b61005081610068565b50600580546001600160a01b031916331790556100ba565b600180546001600160a01b038381166001600160a01b0319831681179093556040519116919082907f8be0079c531659141344cd1fd0a4f28419497f9722a3daafe3b4186f6b6457e090600090a35050565b610a33806100c96000396000f3fe608060405234801561001057600080fd5b50600436106100a35760003560e01c8063715018a611610076578063f064c32e1161005b578063f064c32e1461012b578063f1dbaccb14610133578063f2fde38b1461015357600080fd5b8063715018a6146101105780638da5cb5b1461011a57600080fd5b80630f08efe0146100a8578063202e3740146100c6578063650025a0146100ce5780636a1b7ecc146100f9575b600080fd5b6100b0610166565b6040516100bd9190610865565b60405180910390f35b6100b0610315565b6005546100e1906001600160a01b031681565b6040516001600160a01b0390911681526020016100bd565b61010260045481565b6040519081526020016100bd565b6101186104f7565b005b6001546001600160a01b03166100e1565b6100b061050b565b6101466101413660046108f9565b6106ed565b6040516100bd9190610912565b61011861016136600461095f565b610759565b6060600061017360025490565b9050600061018060035490565b60025461018d91906109a5565b90506000808267ffffffffffffffff8111156101ab576101ab6109be565b60405190808252806020026020018201604052801561021257816020015b6040805160e08101825260008082526020808301829052928201819052606082018190526080820181905260a0820181905260c082015282526000199092019101816101c95790505b50905060005b8481101561030c5760006006816102308460016109d4565b81526020810191909152604001600020600401546001600160a01b03160361030457600061025f8260016109d4565b600081815260066020818152604092839020835160e0810185528154815260018201546001600160a01b039081169382019390935260028201549481019490945260038101548216606085015260048101549091166080840152600581015460a08401529081015460ff16151560c08301528551929350918590879081106102e9576102e96109e7565b60209081029190910101526102ff6001866109d4565b945050505b600101610218565b50949350505050565b6060600061032260025490565b905060008060005b8381101561037a5733600660006103428460016109d4565b81526020810191909152604001600020600401546001600160a01b0316036103725761036f6001846109d4565b92505b60010161032a565b5060008267ffffffffffffffff811115610396576103966109be565b6040519080825280602002602001820160405280156103fd57816020015b6040805160e08101825260008082526020808301829052928201819052606082018190526080820181905260a0820181905260c082015282526000199092019101816103b45790505b50905060005b8481101561030c57336006600061041b8460016109d4565b81526020810191909152604001600020600401546001600160a01b0316036104ef57600061044a8260016109d4565b600081815260066020818152604092839020835160e0810185528154815260018201546001600160a01b039081169382019390935260028201549481019490945260038101548216606085015260048101549091166080840152600581015460a08401529081015460ff16151560c08301528551929350918590879081106104d4576104d46109e7565b60209081029190910101526104ea6001866109d4565b945050505b600101610403565b6104ff6107b5565b61050960006107fb565b565b6060600061051860025490565b905060008060005b838110156105705733600660006105388460016109d4565b81526020810191909152604001600020600301546001600160a01b031603610568576105656001846109d4565b92505b600101610520565b5060008267ffffffffffffffff81111561058c5761058c6109be565b6040519080825280602002602001820160405280156105f357816020015b6040805160e08101825260008082526020808301829052928201819052606082018190526080820181905260a0820181905260c082015282526000199092019101816105aa5790505b50905060005b8481101561030c5733600660006106118460016109d4565b81526020810191909152604001600020600301546001600160a01b0316036106e55760006106408260016109d4565b600081815260066020818152604092839020835160e0810185528154815260018201546001600160a01b039081169382019390935260028201549481019490945260038101548216606085015260048101549091166080840152600581015460a08401529081015460ff16151560c08301528551929350918590879081106106ca576106ca6109e7565b60209081029190910101526106e06001866109d4565b945050505b6001016105f9565b60008181526007602090815260409182902080548351818402810184019094528084526060939283018282801561074d57602002820191906000526020600020905b81546001600160a01b0316815260019091019060200180831161072f575b50505050509050919050565b6107616107b5565b6001600160a01b0381166107a9576040517f1e4fbdf7000000000000000000000000000000000000000000000000000000008152600060048201526024015b60405180910390fd5b6107b2816107fb565b50565b6001546001600160a01b03163314610509576040517f118cdaa70000000000000000000000000000000000000000000000000000000081523360048201526024016107a0565b600180546001600160a01b038381167fffffffffffffffffffffffff0000000000000000000000000000000000000000831681179093556040519116919082907f8be0079c531659141344cd1fd0a4f28419497f9722a3daafe3b4186f6b6457e090600090a35050565b602080825282518282018190526000919060409081850190868401855b828110156108ec57815180518552868101516001600160a01b039081168887015286820151878701526060808301518216908701526080808301519091169086015260a0808201519086015260c09081015115159085015260e09093019290850190600101610882565b5091979650505050505050565b60006020828403121561090b57600080fd5b5035919050565b6020808252825182820181905260009190848201906040850190845b818110156109535783516001600160a01b03168352928401929184019160010161092e565b50909695505050505050565b60006020828403121561097157600080fd5b81356001600160a01b038116811461098857600080fd5b9392505050565b634e487b7160e01b600052601160045260246000fd5b818103818111156109b8576109b861098f565b92915050565b634e487b7160e01b600052604160045260246000fd5b808201808211156109b8576109b861098f565b634e487b7160e01b600052603260045260246000fdfea2646970667358221220a86e2dfb0ca0c6ef237a2271f427728704772727fe7ca1490a0dad580441012a64736f6c63430008180033",
  "linkReferences": {},
  "deployedLinkReferences": {}
}