{
  "_format": "hh-sol-artifact-1",
  "contractName": "DecentradeMarketplace",
  "sourceName": "contracts/Marketplace.sol",
  "abi": [
    {
      "inputs": [],
      "stateMutability": "nonpayable",
      "type": "constructor"
    },
    {
      "inputs": [],
      "name": "EnforcedPause",
      "type": "error"
    },
    {
      "inputs": [],
      "name": "ExpectedPause",
      "type": "error"
    },
    {
      "inputs": [
        {
          "internalType": "address",
          "name": "owner",
          "type": "address"
        }
      ],
      "name": "OwnableInvalidOwner",
      "type": "error"
    },
    {
      "inputs": [
        {
          "internalType": "address",
          "name": "account",
          "type": "address"
        }
      ],
      "name": "OwnableUnauthorizedAccount",
      "type": "error"
    },
    {
      "inputs": [],
      "name": "ReentrancyGuardReentrantCall",
      "type": "error"
    },
    {
      "anonymous": false,
      "inputs": [
        {
          "indexed": true,
          "internalType": "uint256",
          "name": "itemId",
          "type": "uint256"
        },
        {
          "indexed": true,
          "internalType": "address",
          "name": "nftContract",
          "type": "address"
        },
        {
          "indexed": true,
          "internalType": "uint256",
          "name": "tokenId",
          "type": "uint256"
        },
        {
          "indexed": false,
          "internalType": "address",
          "name": "seller",
          "type": "address"
        },
        {
          "indexed": false,
          "internalType": "address",
          "name": "owner",
          "type": "address"
        },
        {
          "indexed": false,
          "internalType": "uint256",
          "name": "price",
          "type": "uint256"
        },
        {
          "indexed": false,
          "internalType": "bool",
          "name": "sold",
          "type": "bool"
        }
      ],
      "name": "MarketItemCreated",
      "type": "event"
    },
    {
      "anonymous": false,
      "inputs": [
        {
          "indexed": true,
          "internalType": "uint256",
          "name": "itemId",
          "type": "uint256"
        },
        {
          "indexed": true,
          "internalType": "address",
          "name": "nftContract",
          "type": "address"
        },
        {
          "indexed": true,
          "internalType": "uint256",
          "name": "tokenId",
          "type": "uint256"
        },
        {
          "indexed": false,
          "internalType": "address",
          "name": "seller",
          "type": "address"
        },
        {
          "indexed": false,
          "internalType": "address",
          "name": "owner",
          "type": "address"
        },
        {
          "indexed": false,
          "internalType": "uint256",
          "name": "price",
          "type": "uint256"
        }
      ],
      "name": "MarketItemSold",
      "type": "event"
    },
    {
      "anonymous": false,
      "inputs": [
        {
          "indexed": true,
          "internalType": "address",
          "name": "previousOwner",
          "type": "address"
        },
        {
          "indexed": true,
          "internalType": "address",
          "name": "newOwner",
          "type": "address"
        }
      ],
      "name": "OwnershipTransferred",
      "type": "event"
    },
    {
      "anonymous": false,
      "inputs": [
        {
          "indexed": false,
          "internalType": "address",
          "name": "account",
          "type": "address"
        }
      ],
      "name": "Paused",
      "type": "event"
    },
    {
      "anonymous": false,
      "inputs": [
        {
          "indexed": false,
          "internalType": "address",
          "name": "account",
          "type": "address"
        }
      ],
      "name": "Unpaused",
      "type": "event"
    },
    {
      "inputs": [
        {
          "internalType": "address",
          "name": "nftContract",
          "type": "address"
        },
        {
          "internalType": "uint256",
          "name": "tokenId",
          "type": "uint256"
        },
        {
          "internalType": "uint256",
          "name": "price",
          "type": "uint256"
        }
      ],
      "name": "createMarketItem",
      "outputs": [],
      "stateMutability": "payable",
      "type": "function"
    },
    {
      "inputs": [
        {
          "internalType": "address",
          "name": "nftContract",
          "type": "address"
        },
        {
          "internalType": "uint256",
          "name": "itemId",
          "type": "uint256"
        }
      ],
      "name": "createMarketSale",
      "outputs": [],
      "stateMutability": "payable",
      "type": "function"
    },
    {
      "inputs": [],
      "name": "fetchItemsCreated",
      "outputs": [
        {
          "components": [
            {
              "internalType": "uint256",
              "name": "itemId",
              "type": "uint256"
            },
            {
              "internalType": "address",
              "name": "nftContract",
              "type": "address"
            },
            {
              "internalType": "uint256",
              "name": "tokenId",
              "type": "uint256"
            },
            {
              "internalType": "address payable",
              "name": "seller",
              "type": "address"
            },
            {
              "internalType": "address payable",
              "name": "owner",
              "type": "address"
            },
            {
              "internalType": "uint256",
              "name": "price",
              "type": "uint256"
            },
            {
              "internalType": "bool",
              "name": "sold",
              "type": "bool"
            }
          ],
          "internalType": "struct DecentradeMarketplace.MarketItem[]",
          "name": "",
          "type": "tuple[]"
        }
      ],
      "stateMutability": "view",
      "type": "function"
    },
    {
      "inputs": [],
      "name": "fetchMarketItems",
      "outputs": [
        {
          "components": [
            {
              "internalType": "uint256",
              "name": "itemId",
              "type": "uint256"
            },
            {
              "internalType": "address",
              "name": "nftContract",
              "type": "address"
            },
            {
              "internalType": "uint256",
              "name": "tokenId",
              "type": "uint256"
            },
            {
              "internalType": "address payable",
              "name": "seller",
              "type": "address"
            },
            {
              "internalType": "address payable",
              "name": "owner",
              "type": "address"
            },
            {
              "internalType": "uint256",
              "name": "price",
              "type": "uint256"
            },
            {
              "internalType": "bool",
              "name": "sold",
              "type": "bool"
            }
          ],
          "internalType": "struct DecentradeMarketplace.MarketItem[]",
          "name": "",
          "type": "tuple[]"
        }
      ],
      "stateMutability": "view",
      "type": "function"
    },
    {
      "inputs": [],
      "name": "fetchMyNFTs",
      "outputs": [
        {
          "components": [
            {
              "internalType": "uint256",
              "name": "itemId",
              "type": "uint256"
            },
            {
              "internalType": "address",
              "name": "nftContract",
              "type": "address"
            },
            {
              "internalType": "uint256",
              "name": "tokenId",
              "type": "uint256"
            },
            {
              "internalType": "address payable",
              "name": "seller",
              "type": "address"
            },
            {
              "internalType": "address payable",
              "name": "owner",
              "type": "address"
            },
            {
              "internalType": "uint256",
              "name": "price",
              "type": "uint256"
            },
            {
              "internalType": "bool",
              "name": "sold",
              "type": "bool"
            }
          ],
          "internalType": "struct DecentradeMarketplace.MarketItem[]",
          "name": "",
          "type": "tuple[]"
        }
      ],
      "stateMutability": "view",
      "type": "function"
    },
    {
      "inputs": [],
      "name": "getListingFee",
      "outputs": [
        {
          "internalType": "uint256",
          "name": "",
          "type": "uint256"
        }
      ],
      "stateMutability": "view",
      "type": "function"
    },
    {
      "inputs": [
        {
          "internalType": "uint256",
          "name": "tokenId",
          "type": "uint256"
        }
      ],
      "name": "getOwnershipHistory",
      "outputs": [
        {
          "internalType": "address[]",
          "name": "",
          "type": "address[]"
        }
      ],
      "stateMutability": "view",
      "type": "function"
    },
    {
      "inputs": [],
      "name": "listingFee",
      "outputs": [
        {
          "internalType": "uint256",
          "name": "",
          "type": "uint256"
        }
      ],
      "stateMutability": "view",
      "type": "function"
    },
    {
      "inputs": [],
      "name": "marketplaceOwner",
      "outputs": [
        {
          "internalType": "address payable",
          "name": "",
          "type": "address"
        }
      ],
      "stateMutability": "view",
      "type": "function"
    },
    {
      "inputs": [],
      "name": "owner",
      "outputs": [
        {
          "internalType": "address",
          "name": "",
          "type": "address"
        }
      ],
      "stateMutability": "view",
      "type": "function"
    },
    {
      "inputs": [],
      "name": "pause",
      "outputs": [],
      "stateMutability": "nonpayable",
      "type": "function"
    },
    {
      "inputs": [],
      "name": "paused",
      "outputs": [
        {
          "internalType": "bool",
          "name": "",
          "type": "bool"
        }
      ],
      "stateMutability": "view",
      "type": "function"
    },
    {
      "inputs": [],
      "name": "renounceOwnership",
      "outputs": [],
      "stateMutability": "nonpayable",
      "type": "function"
    },
    {
      "inputs": [
        {
          "internalType": "uint256",
          "name": "_listingFee",
          "type": "uint256"
        }
      ],
      "name": "setListingFee",
      "outputs": [],
      "stateMutability": "nonpayable",
      "type": "function"
    },
    {
      "inputs": [
        {
          "internalType": "address",
          "name": "newOwner",
          "type": "address"
        }
      ],
      "name": "transferOwnership",
      "outputs": [],
      "stateMutability": "nonpayable",
      "type": "function"
    },
    {
      "inputs": [],
      "name": "unpause",
      "outputs": [],
      "stateMutability": "nonpayable",
      "type": "function"
    }
  ],
  "bytecode": "0x60806040526658d15e176280006004553480156200001c57600080fd5b50336001600081905550600073ffffffffffffffffffffffffffffffffffffffff168173ffffffffffffffffffffffffffffffffffffffff16036200009b5760006040517f1e4fbdf70000000000000000000000000000000000000000000000000000000081526004016200009291906200021a565b60405180910390fd5b620000ac816200010f60201b60201c565b506000600160146101000a81548160ff02191690831515021790555033600560006101000a81548173ffffffffffffffffffffffffffffffffffffffff021916908373ffffffffffffffffffffffffffffffffffffffff16021790555062000237565b6000600160009054906101000a900473ffffffffffffffffffffffffffffffffffffffff16905081600160006101000a81548173ffffffffffffffffffffffffffffffffffffffff021916908373ffffffffffffffffffffffffffffffffffffffff1602179055508173ffffffffffffffffffffffffffffffffffffffff168173ffffffffffffffffffffffffffffffffffffffff167f8be0079c531659141344cd1fd0a4f28419497f9722a3daafe3b4186f6b6457e060405160405180910390a35050565b600073ffffffffffffffffffffffffffffffffffffffff82169050919050565b60006200020282620001d5565b9050919050565b6200021481620001f5565b82525050565b600060208201905062000231600083018462000209565b92915050565b61214c80620002476000396000f3fe6080604052600436106100f35760003560e01c8063715018a61161008a578063c23b139e11610059578063c23b139e146102af578063f064c32e146102cb578063f1dbaccb146102f6578063f2fde38b14610333576100f3565b8063715018a61461022b5780638456cb59146102425780638da5cb5b14610259578063b8fe6abe14610284576100f3565b806358eb2df5116100c657806358eb2df51461018e5780635c975abb146101aa578063650025a0146101d55780636a1b7ecc14610200576100f3565b80630f08efe0146100f8578063131dbd0914610123578063202e37401461014c5780633f4ba83a14610177575b600080fd5b34801561010457600080fd5b5061010d61035c565b60405161011a9190611a89565b60405180910390f35b34801561012f57600080fd5b5061014a60048036038101906101459190611adc565b61061f565b005b34801561015857600080fd5b50610161610631565b60405161016e9190611a89565b60405180910390f35b34801561018357600080fd5b5061018c610971565b005b6101a860048036038101906101a39190611b35565b610983565b005b3480156101b657600080fd5b506101bf610ca9565b6040516101cc9190611b97565b60405180910390f35b3480156101e157600080fd5b506101ea610cc0565b6040516101f79190611bc1565b60405180910390f35b34801561020c57600080fd5b50610215610ce6565b6040516102229190611beb565b60405180910390f35b34801561023757600080fd5b50610240610cec565b005b34801561024e57600080fd5b50610257610d00565b005b34801561026557600080fd5b5061026e610d12565b60405161027b9190611c15565b60405180910390f35b34801561029057600080fd5b50610299610d3c565b6040516102a69190611beb565b60405180910390f35b6102c960048036038101906102c49190611c30565b610d46565b005b3480156102d757600080fd5b506102e06110bf565b6040516102ed9190611a89565b60405180910390f35b34801561030257600080fd5b5061031d60048036038101906103189190611adc565b6113ff565b60405161032a9190611d1f565b60405180910390f35b34801561033f57600080fd5b5061035a60048036038101906103559190611d41565b6114a0565b005b6060600061036a6002611526565b905060006103786003611526565b6103826002611526565b61038c9190611d9d565b90506000808267ffffffffffffffff8111156103ab576103aa611dd1565b5b6040519080825280602002602001820160405280156103e457816020015b6103d1611835565b8152602001906001900390816103c95790505b50905060005b8481101561061457600073ffffffffffffffffffffffffffffffffffffffff166006600060018461041b9190611e00565b815260200190815260200160002060040160009054906101000a900473ffffffffffffffffffffffffffffffffffffffff1673ffffffffffffffffffffffffffffffffffffffff16036106075760006001826104779190611e00565b90506000600660008381526020019081526020016000209050806040518060e0016040529081600082015481526020016001820160009054906101000a900473ffffffffffffffffffffffffffffffffffffffff1673ffffffffffffffffffffffffffffffffffffffff1673ffffffffffffffffffffffffffffffffffffffff168152602001600282015481526020016003820160009054906101000a900473ffffffffffffffffffffffffffffffffffffffff1673ffffffffffffffffffffffffffffffffffffffff1673ffffffffffffffffffffffffffffffffffffffff1681526020016004820160009054906101000a900473ffffffffffffffffffffffffffffffffffffffff1673ffffffffffffffffffffffffffffffffffffffff1673ffffffffffffffffffffffffffffffffffffffff168152602001600582015481526020016006820160009054906101000a900460ff1615151515815250508486815181106105ea576105e9611e34565b5b60200260200101819052506001856106029190611e00565b945050505b80806001019150506103ea565b508094505050505090565b610627611534565b8060048190555050565b6060600061063f6002611526565b905060008060005b838110156106e1573373ffffffffffffffffffffffffffffffffffffffff16600660006001846106779190611e00565b815260200190815260200160002060040160009054906101000a900473ffffffffffffffffffffffffffffffffffffffff1673ffffffffffffffffffffffffffffffffffffffff16036106d4576001836106d19190611e00565b92505b8080600101915050610647565b5060008267ffffffffffffffff8111156106fe576106fd611dd1565b5b60405190808252806020026020018201604052801561073757816020015b610724611835565b81526020019060019003908161071c5790505b50905060005b84811015610966573373ffffffffffffffffffffffffffffffffffffffff166006600060018461076d9190611e00565b815260200190815260200160002060040160009054906101000a900473ffffffffffffffffffffffffffffffffffffffff1673ffffffffffffffffffffffffffffffffffffffff16036109595760006001826107c99190611e00565b90506000600660008381526020019081526020016000209050806040518060e0016040529081600082015481526020016001820160009054906101000a900473ffffffffffffffffffffffffffffffffffffffff1673ffffffffffffffffffffffffffffffffffffffff1673ffffffffffffffffffffffffffffffffffffffff168152602001600282015481526020016003820160009054906101000a900473ffffffffffffffffffffffffffffffffffffffff1673ffffffffffffffffffffffffffffffffffffffff1673ffffffffffffffffffffffffffffffffffffffff1681526020016004820160009054906101000a900473ffffffffffffffffffffffffffffffffffffffff1673ffffffffffffffffffffffffffffffffffffffff1673ffffffffffffffffffffffffffffffffffffffff168152602001600582015481526020016006820160009054906101000a900460ff16151515158152505084868151811061093c5761093b611e34565b5b60200260200101819052506001856109549190611e00565b945050505b808060010191505061073d565b508094505050505090565b610979611534565b6109816115bb565b565b61098b61161e565b610993611664565b600081116109d6576040517f08c379a00000000000000000000000000000000000000000000000000000000081526004016109cd90611ec0565b60405180910390fd5b6004543414610a1a576040517f08c379a0000000000000000000000000000000000000000000000000000000008152600401610a1190611f52565b60405180910390fd5b610a2460026116a5565b6000610a306002611526565b90506040518060e001604052808281526020018573ffffffffffffffffffffffffffffffffffffffff1681526020018481526020013373ffffffffffffffffffffffffffffffffffffffff168152602001600073ffffffffffffffffffffffffffffffffffffffff16815260200183815260200160001515815250600660008381526020019081526020016000206000820151816000015560208201518160010160006101000a81548173ffffffffffffffffffffffffffffffffffffffff021916908373ffffffffffffffffffffffffffffffffffffffff1602179055506040820151816002015560608201518160030160006101000a81548173ffffffffffffffffffffffffffffffffffffffff021916908373ffffffffffffffffffffffffffffffffffffffff16021790555060808201518160040160006101000a81548173ffffffffffffffffffffffffffffffffffffffff021916908373ffffffffffffffffffffffffffffffffffffffff16021790555060a0820151816005015560c08201518160060160006101000a81548160ff0219169083151502179055509050508373ffffffffffffffffffffffffffffffffffffffff166323b872dd3330866040518463ffffffff1660e01b8152600401610c1193929190611f72565b600060405180830381600087803b158015610c2b57600080fd5b505af1158015610c3f573d6000803e3d6000fd5b50505050828473ffffffffffffffffffffffffffffffffffffffff16827f045dfa01dcba2b36aba1d3dc4a874f4b0c5d2fbeb8d2c4b34a7d88c8d8f929d1336000876000604051610c939493929190611fa9565b60405180910390a450610ca46116bb565b505050565b6000600160149054906101000a900460ff16905090565b600560009054906101000a900473ffffffffffffffffffffffffffffffffffffffff1681565b60045481565b610cf4611534565b610cfe60006116c5565b565b610d08611534565b610d1061178b565b565b6000600160009054906101000a900473ffffffffffffffffffffffffffffffffffffffff16905090565b6000600454905090565b610d4e61161e565b610d56611664565b600060066000838152602001908152602001600020600501549050600060066000848152602001908152602001600020600201549050813414610dce576040517f08c379a0000000000000000000000000000000000000000000000000000000008152600401610dc590612060565b60405180910390fd5b6006600084815260200190815260200160002060030160009054906101000a900473ffffffffffffffffffffffffffffffffffffffff1673ffffffffffffffffffffffffffffffffffffffff166108fc349081150290604051600060405180830381858888f19350505050158015610e4a573d6000803e3d6000fd5b508373ffffffffffffffffffffffffffffffffffffffff166323b872dd3033846040518463ffffffff1660e01b8152600401610e8893929190611f72565b600060405180830381600087803b158015610ea257600080fd5b505af1158015610eb6573d6000803e3d6000fd5b50505050336006600085815260200190815260200160002060040160006101000a81548173ffffffffffffffffffffffffffffffffffffffff021916908373ffffffffffffffffffffffffffffffffffffffff16021790555060016006600085815260200190815260200160002060060160006101000a81548160ff021916908315150217905550610f4860036116a5565b600560009054906101000a900473ffffffffffffffffffffffffffffffffffffffff1673ffffffffffffffffffffffffffffffffffffffff166108fc6004549081150290604051600060405180830381858888f19350505050158015610fb2573d6000803e3d6000fd5b5060076000828152602001908152602001600020339080600181540180825580915050600190039060005260206000200160009091909190916101000a81548173ffffffffffffffffffffffffffffffffffffffff021916908373ffffffffffffffffffffffffffffffffffffffff160217905550808473ffffffffffffffffffffffffffffffffffffffff16847f6a5f9d2b6ff1f375ebe095556dc91e68fce80a6187d7527cce81c3ab02726c9c6006600088815260200190815260200160002060030160009054906101000a900473ffffffffffffffffffffffffffffffffffffffff1633876040516110a9939291906120df565b60405180910390a450506110bb6116bb565b5050565b606060006110cd6002611526565b905060008060005b8381101561116f573373ffffffffffffffffffffffffffffffffffffffff16600660006001846111059190611e00565b815260200190815260200160002060030160009054906101000a900473ffffffffffffffffffffffffffffffffffffffff1673ffffffffffffffffffffffffffffffffffffffff16036111625760018361115f9190611e00565b92505b80806001019150506110d5565b5060008267ffffffffffffffff81111561118c5761118b611dd1565b5b6040519080825280602002602001820160405280156111c557816020015b6111b2611835565b8152602001906001900390816111aa5790505b50905060005b848110156113f4573373ffffffffffffffffffffffffffffffffffffffff16600660006001846111fb9190611e00565b815260200190815260200160002060030160009054906101000a900473ffffffffffffffffffffffffffffffffffffffff1673ffffffffffffffffffffffffffffffffffffffff16036113e75760006001826112579190611e00565b90506000600660008381526020019081526020016000209050806040518060e0016040529081600082015481526020016001820160009054906101000a900473ffffffffffffffffffffffffffffffffffffffff1673ffffffffffffffffffffffffffffffffffffffff1673ffffffffffffffffffffffffffffffffffffffff168152602001600282015481526020016003820160009054906101000a900473ffffffffffffffffffffffffffffffffffffffff1673ffffffffffffffffffffffffffffffffffffffff1673ffffffffffffffffffffffffffffffffffffffff1681526020016004820160009054906101000a900473ffffffffffffffffffffffffffffffffffffffff1673ffffffffffffffffffffffffffffffffffffffff1673ffffffffffffffffffffffffffffffffffffffff168152602001600582015481526020016006820160009054906101000a900460ff1615151515815250508486815181106113ca576113c9611e34565b5b60200260200101819052506001856113e29190611e00565b945050505b80806001019150506111cb565b508094505050505090565b60606007600083815260200190815260200160002080548060200260200160405190810160405280929190818152602001828054801561149457602002820191906000526020600020905b8160009054906101000a900473ffffffffffffffffffffffffffffffffffffffff1673ffffffffffffffffffffffffffffffffffffffff168152602001906001019080831161144a575b50505050509050919050565b6114a8611534565b600073ffffffffffffffffffffffffffffffffffffffff168173ffffffffffffffffffffffffffffffffffffffff160361151a5760006040517f1e4fbdf70000000000000000000000000000000000000000000000000000000081526004016115119190611c15565b60405180910390fd5b611523816116c5565b50565b600081600001549050919050565b61153c6117ed565b73ffffffffffffffffffffffffffffffffffffffff1661155a610d12565b73ffffffffffffffffffffffffffffffffffffffff16146115b95761157d6117ed565b6040517f118cdaa70000000000000000000000000000000000000000000000000000000081526004016115b09190611c15565b60405180910390fd5b565b6115c36117f5565b6000600160146101000a81548160ff0219169083151502179055507f5db9ee0a495bf2e6ff9c91a7834c1ba4fdd244a5e8aa4e537bd38aeae4b073aa6116076117ed565b6040516116149190611c15565b60405180910390a1565b60026000540361165a576040517f3ee5aeb500000000000000000000000000000000000000000000000000000000815260040160405180910390fd5b6002600081905550565b61166c610ca9565b156116a3576040517fd93c066500000000000000000000000000000000000000000000000000000000815260040160405180910390fd5b565b6001816000016000828254019250508190555050565b6001600081905550565b6000600160009054906101000a900473ffffffffffffffffffffffffffffffffffffffff16905081600160006101000a81548173ffffffffffffffffffffffffffffffffffffffff021916908373ffffffffffffffffffffffffffffffffffffffff1602179055508173ffffffffffffffffffffffffffffffffffffffff168173ffffffffffffffffffffffffffffffffffffffff167f8be0079c531659141344cd1fd0a4f28419497f9722a3daafe3b4186f6b6457e060405160405180910390a35050565b611793611664565b60018060146101000a81548160ff0219169083151502179055507f62e78cea01bee320cd4e420270b5ea74000d11b0c9f74754ebdbfc544b05a2586117d66117ed565b6040516117e39190611c15565b60405180910390a1565b600033905090565b6117fd610ca9565b611833576040517f8dfc202b00000000000000000000000000000000000000000000000000000000815260040160405180910390fd5b565b6040518060e0016040528060008152602001600073ffffffffffffffffffffffffffffffffffffffff16815260200160008152602001600073ffffffffffffffffffffffffffffffffffffffff168152602001600073ffffffffffffffffffffffffffffffffffffffff168152602001600081526020016000151581525090565b600081519050919050565b600082825260208201905092915050565b6000819050602082019050919050565b6000819050919050565b6118f5816118e2565b82525050565b600073ffffffffffffffffffffffffffffffffffffffff82169050919050565b6000611926826118fb565b9050919050565b6119368161191b565b82525050565b6000611947826118fb565b9050919050565b6119578161193c565b82525050565b60008115159050919050565b6119728161195d565b82525050565b60e08201600082015161198e60008501826118ec565b5060208201516119a1602085018261192d565b5060408201516119b460408501826118ec565b5060608201516119c7606085018261194e565b5060808201516119da608085018261194e565b5060a08201516119ed60a08501826118ec565b5060c0820151611a0060c0850182611969565b50505050565b6000611a128383611978565b60e08301905092915050565b6000602082019050919050565b6000611a36826118b6565b611a4081856118c1565b9350611a4b836118d2565b8060005b83811015611a7c578151611a638882611a06565b9750611a6e83611a1e565b925050600181019050611a4f565b5085935050505092915050565b60006020820190508181036000830152611aa38184611a2b565b905092915050565b600080fd5b611ab9816118e2565b8114611ac457600080fd5b50565b600081359050611ad681611ab0565b92915050565b600060208284031215611af257611af1611aab565b5b6000611b0084828501611ac7565b91505092915050565b611b128161191b565b8114611b1d57600080fd5b50565b600081359050611b2f81611b09565b92915050565b600080600060608486031215611b4e57611b4d611aab565b5b6000611b5c86828701611b20565b9350506020611b6d86828701611ac7565b9250506040611b7e86828701611ac7565b9150509250925092565b611b918161195d565b82525050565b6000602082019050611bac6000830184611b88565b92915050565b611bbb8161193c565b82525050565b6000602082019050611bd66000830184611bb2565b92915050565b611be5816118e2565b82525050565b6000602082019050611c006000830184611bdc565b92915050565b611c0f8161191b565b82525050565b6000602082019050611c2a6000830184611c06565b92915050565b60008060408385031215611c4757611c46611aab565b5b6000611c5585828601611b20565b9250506020611c6685828601611ac7565b9150509250929050565b600081519050919050565b600082825260208201905092915050565b6000819050602082019050919050565b6000611ca8838361192d565b60208301905092915050565b6000602082019050919050565b6000611ccc82611c70565b611cd68185611c7b565b9350611ce183611c8c565b8060005b83811015611d12578151611cf98882611c9c565b9750611d0483611cb4565b925050600181019050611ce5565b5085935050505092915050565b60006020820190508181036000830152611d398184611cc1565b905092915050565b600060208284031215611d5757611d56611aab565b5b6000611d6584828501611b20565b91505092915050565b7f4e487b7100000000000000000000000000000000000000000000000000000000600052601160045260246000fd5b6000611da8826118e2565b9150611db3836118e2565b9250828203905081811115611dcb57611dca611d6e565b5b92915050565b7f4e487b7100000000000000000000000000000000000000000000000000000000600052604160045260246000fd5b6000611e0b826118e2565b9150611e16836118e2565b9250828201905080821115611e2e57611e2d611d6e565b5b92915050565b7f4e487b7100000000000000000000000000000000000000000000000000000000600052603260045260246000fd5b600082825260208201905092915050565b7f5072696365206d757374206265206174206c6561737420312077656900000000600082015250565b6000611eaa601c83611e63565b9150611eb582611e74565b602082019050919050565b60006020820190508181036000830152611ed981611e9d565b9050919050565b7f5072696365206d75737420626520657175616c20746f206c697374696e67206660008201527f6565000000000000000000000000000000000000000000000000000000000000602082015250565b6000611f3c602283611e63565b9150611f4782611ee0565b604082019050919050565b60006020820190508181036000830152611f6b81611f2f565b9050919050565b6000606082019050611f876000830186611c06565b611f946020830185611c06565b611fa16040830184611bdc565b949350505050565b6000608082019050611fbe6000830187611c06565b611fcb6020830186611c06565b611fd86040830185611bdc565b611fe56060830184611b88565b95945050505050565b7f506c65617365207375626d6974207468652061736b696e67207072696365206960008201527f6e206f7264657220746f20636f6d706c65746520746865207075726368617365602082015250565b600061204a604083611e63565b915061205582611fee565b604082019050919050565b600060208201905081810360008301526120798161203d565b9050919050565b6000819050919050565b60006120a56120a061209b846118fb565b612080565b6118fb565b9050919050565b60006120b78261208a565b9050919050565b60006120c9826120ac565b9050919050565b6120d9816120be565b82525050565b60006060820190506120f460008301866120d0565b6121016020830185611c06565b61210e6040830184611bdc565b94935050505056fea264697066735822122082ebd65086a0868b78bbff3a87d0343b8310bc44fb8ac2662de1e245433b6dcd64736f6c63430008180033",
  "linkReferences": {},
  "deployedLinkReferences": {}
}