{
  "_format": "hh-sol-artifact-1",
  "contractName": "DecentradeNFT",
  "sourceName": "contracts/Marketplace.sol",
  "abi": [
    {
      "inputs": [],
      "stateMutability": "nonpayable",
      "type": "constructor"
    },
    {
      "inputs": [
        {
          "internalType": "uint256",
          "name": "numerator",
          "type": "uint256"
        },
        {
          "internalType": "uint256",
          "name": "denominator",
          "type": "uint256"
        }
      ],
      "name": "ERC2981InvalidDefaultRoyalty",
      "type": "error"
    },
    {
      "inputs": [
        {
          "internalType": "address",
          "name": "receiver",
          "type": "address"
        }
      ],
      "name": "ERC2981InvalidDefaultRoyaltyReceiver",
      "type": "error"
    },
    {
      "inputs": [
        {
          "internalType": "uint256",
          "name": "tokenId",
          "type": "uint256"
        },
        {
          "internalType": "uint256",
          "name": "numerator",
          "type": "uint256"
        },
        {
          "internalType": "uint256",
          "name": "denominator",
          "type": "uint256"
        }
      ],
      "name": "ERC2981InvalidTokenRoyalty",
      "type": "error"
    },
    {
      "inputs": [
        {
          "internalType": "uint256",
          "name": "tokenId",
          "type": "uint256"
        },
        {
          "internalType": "address",
          "name": "receiver",
          "type": "address"
        }
      ],
      "name": "ERC2981InvalidTokenRoyaltyReceiver",
      "type": "error"
    },
    {
      "inputs": [
        {
          "internalType": "address",
          "name": "sender",
          "type": "address"
        },
        {
          "internalType": "uint256",
          "name": "tokenId",
          "type": "uint256"
        },
        {
          "internalType": "address",
          "name": "owner",
          "type": "address"
        }
      ],
      "name": "ERC721IncorrectOwner",
      "type": "error"
    },
    {
      "inputs": [
        {
          "internalType": "address",
          "name": "operator",
          "type": "address"
        },
        {
          "internalType": "uint256",
          "name": "tokenId",
          "type": "uint256"
        }
      ],
      "name": "ERC721InsufficientApproval",
      "type": "error"
    },
    {
      "inputs": [
        {
          "internalType": "address",
          "name": "approver",
          "type": "address"
        }
      ],
      "name": "ERC721InvalidApprover",
      "type": "error"
    },
    {
      "inputs": [
        {
          "internalType": "address",
          "name": "operator",
          "type": "address"
        }
      ],
      "name": "ERC721InvalidOperator",
      "type": "error"
    },
    {
      "inputs": [
        {
          "internalType": "address",
          "name": "owner",
          "type": "address"
        }
      ],
      "name": "ERC721InvalidOwner",
      "type": "error"
    },
    {
      "inputs": [
        {
          "internalType": "address",
          "name": "receiver",
          "type": "address"
        }
      ],
      "name": "ERC721InvalidReceiver",
      "type": "error"
    },
    {
      "inputs": [
        {
          "internalType": "address",
          "name": "sender",
          "type": "address"
        }
      ],
      "name": "ERC721InvalidSender",
      "type": "error"
    },
    {
      "inputs": [
        {
          "internalType": "uint256",
          "name": "tokenId",
          "type": "uint256"
        }
      ],
      "name": "ERC721NonexistentToken",
      "type": "error"
    },
    {
      "inputs": [],
      "name": "EnforcedPause",
      "type": "error"
    },
    {
      "inputs": [],
      "name": "ExpectedPause",
      "type": "error"
    },
    {
      "inputs": [
        {
          "internalType": "address",
          "name": "owner",
          "type": "address"
        }
      ],
      "name": "OwnableInvalidOwner",
      "type": "error"
    },
    {
      "inputs": [
        {
          "internalType": "address",
          "name": "account",
          "type": "address"
        }
      ],
      "name": "OwnableUnauthorizedAccount",
      "type": "error"
    },
    {
      "anonymous": false,
      "inputs": [
        {
          "indexed": true,
          "internalType": "address",
          "name": "owner",
          "type": "address"
        },
        {
          "indexed": true,
          "internalType": "address",
          "name": "approved",
          "type": "address"
        },
        {
          "indexed": true,
          "internalType": "uint256",
          "name": "tokenId",
          "type": "uint256"
        }
      ],
      "name": "Approval",
      "type": "event"
    },
    {
      "anonymous": false,
      "inputs": [
        {
          "indexed": true,
          "internalType": "address",
          "name": "owner",
          "type": "address"
        },
        {
          "indexed": true,
          "internalType": "address",
          "name": "operator",
          "type": "address"
        },
        {
          "indexed": false,
          "internalType": "bool",
          "name": "approved",
          "type": "bool"
        }
      ],
      "name": "ApprovalForAll",
      "type": "event"
    },
    {
      "anonymous": false,
      "inputs": [
        {
          "indexed": false,
          "internalType": "uint256",
          "name": "_fromTokenId",
          "type": "uint256"
        },
        {
          "indexed": false,
          "internalType": "uint256",
          "name": "_toTokenId",
          "type": "uint256"
        }
      ],
      "name": "BatchMetadataUpdate",
      "type": "event"
    },
    {
      "anonymous": false,
      "inputs": [
        {
          "indexed": false,
          "internalType": "uint256",
          "name": "_tokenId",
          "type": "uint256"
        }
      ],
      "name": "MetadataUpdate",
      "type": "event"
    },
    {
      "anonymous": false,
      "inputs": [
        {
          "indexed": true,
          "internalType": "address",
          "name": "previousOwner",
          "type": "address"
        },
        {
          "indexed": true,
          "internalType": "address",
          "name": "newOwner",
          "type": "address"
        }
      ],
      "name": "OwnershipTransferred",
      "type": "event"
    },
    {
      "anonymous": false,
      "inputs": [
        {
          "indexed": false,
          "internalType": "address",
          "name": "account",
          "type": "address"
        }
      ],
      "name": "Paused",
      "type": "event"
    },
    {
      "anonymous": false,
      "inputs": [
        {
          "indexed": true,
          "internalType": "address",
          "name": "from",
          "type": "address"
        },
        {
          "indexed": true,
          "internalType": "address",
          "name": "to",
          "type": "address"
        },
        {
          "indexed": true,
          "internalType": "uint256",
          "name": "tokenId",
          "type": "uint256"
        }
      ],
      "name": "Transfer",
      "type": "event"
    },
    {
      "anonymous": false,
      "inputs": [
        {
          "indexed": false,
          "internalType": "address",
          "name": "account",
          "type": "address"
        }
      ],
      "name": "Unpaused",
      "type": "event"
    },
    {
      "inputs": [
        {
          "internalType": "address",
          "name": "to",
          "type": "address"
        },
        {
          "internalType": "uint256",
          "name": "tokenId",
          "type": "uint256"
        }
      ],
      "name": "approve",
      "outputs": [],
      "stateMutability": "nonpayable",
      "type": "function"
    },
    {
      "inputs": [
        {
          "internalType": "address",
          "name": "owner",
          "type": "address"
        }
      ],
      "name": "balanceOf",
      "outputs": [
        {
          "internalType": "uint256",
          "name": "",
          "type": "uint256"
        }
      ],
      "stateMutability": "view",
      "type": "function"
    },
    {
      "inputs": [
        {
          "internalType": "uint256",
          "name": "tokenId",
          "type": "uint256"
        }
      ],
      "name": "getApproved",
      "outputs": [
        {
          "internalType": "address",
          "name": "",
          "type": "address"
        }
      ],
      "stateMutability": "view",
      "type": "function"
    },
    {
      "inputs": [
        {
          "internalType": "address",
          "name": "owner",
          "type": "address"
        },
        {
          "internalType": "address",
          "name": "operator",
          "type": "address"
        }
      ],
      "name": "isApprovedForAll",
      "outputs": [
        {
          "internalType": "bool",
          "name": "",
          "type": "bool"
        }
      ],
      "stateMutability": "view",
      "type": "function"
    },
    {
      "inputs": [
        {
          "internalType": "address",
          "name": "recipient",
          "type": "address"
        },
        {
          "internalType": "string",
          "name": "tokenURI",
          "type": "string"
        },
        {
          "internalType": "uint96",
          "name": "royaltyFee",
          "type": "uint96"
        }
      ],
      "name": "mintNFT",
      "outputs": [
        {
          "internalType": "uint256",
          "name": "",
          "type": "uint256"
        }
      ],
      "stateMutability": "nonpayable",
      "type": "function"
    },
    {
      "inputs": [],
      "name": "name",
      "outputs": [
        {
          "internalType": "string",
          "name": "",
          "type": "string"
        }
      ],
      "stateMutability": "view",
      "type": "function"
    },
    {
      "inputs": [],
      "name": "owner",
      "outputs": [
        {
          "internalType": "address",
          "name": "",
          "type": "address"
        }
      ],
      "stateMutability": "view",
      "type": "function"
    },
    {
      "inputs": [
        {
          "internalType": "uint256",
          "name": "tokenId",
          "type": "uint256"
        }
      ],
      "name": "ownerOf",
      "outputs": [
        {
          "internalType": "address",
          "name": "",
          "type": "address"
        }
      ],
      "stateMutability": "view",
      "type": "function"
    },
    {
      "inputs": [],
      "name": "pause",
      "outputs": [],
      "stateMutability": "nonpayable",
      "type": "function"
    },
    {
      "inputs": [],
      "name": "paused",
      "outputs": [
        {
          "internalType": "bool",
          "name": "",
          "type": "bool"
        }
      ],
      "stateMutability": "view",
      "type": "function"
    },
    {
      "inputs": [],
      "name": "renounceOwnership",
      "outputs": [],
      "stateMutability": "nonpayable",
      "type": "function"
    },
    {
      "inputs": [
        {
          "internalType": "uint256",
          "name": "tokenId",
          "type": "uint256"
        },
        {
          "internalType": "uint256",
          "name": "salePrice",
          "type": "uint256"
        }
      ],
      "name": "royaltyInfo",
      "outputs": [
        {
          "internalType": "address",
          "name": "",
          "type": "address"
        },
        {
          "internalType": "uint256",
          "name": "",
          "type": "uint256"
        }
      ],
      "stateMutability": "view",
      "type": "function"
    },
    {
      "inputs": [
        {
          "internalType": "address",
          "name": "from",
          "type": "address"
        },
        {
          "internalType": "address",
          "name": "to",
          "type": "address"
        },
        {
          "internalType": "uint256",
          "name": "tokenId",
          "type": "uint256"
        }
      ],
      "name": "safeTransferFrom",
      "outputs": [],
      "stateMutability": "nonpayable",
      "type": "function"
    },
    {
      "inputs": [
        {
          "internalType": "address",
          "name": "from",
          "type": "address"
        },
        {
          "internalType": "address",
          "name": "to",
          "type": "address"
        },
        {
          "internalType": "uint256",
          "name": "tokenId",
          "type": "uint256"
        },
        {
          "internalType": "bytes",
          "name": "data",
          "type": "bytes"
        }
      ],
      "name": "safeTransferFrom",
      "outputs": [],
      "stateMutability": "nonpayable",
      "type": "function"
    },
    {
      "inputs": [
        {
          "internalType": "address",
          "name": "operator",
          "type": "address"
        },
        {
          "internalType": "bool",
          "name": "approved",
          "type": "bool"
        }
      ],
      "name": "setApprovalForAll",
      "outputs": [],
      "stateMutability": "nonpayable",
      "type": "function"
    },
    {
      "inputs": [
        {
          "internalType": "bytes4",
          "name": "interfaceId",
          "type": "bytes4"
        }
      ],
      "name": "supportsInterface",
      "outputs": [
        {
          "internalType": "bool",
          "name": "",
          "type": "bool"
        }
      ],
      "stateMutability": "view",
      "type": "function"
    },
    {
      "inputs": [],
      "name": "symbol",
      "outputs": [
        {
          "internalType": "string",
          "name": "",
          "type": "string"
        }
      ],
      "stateMutability": "view",
      "type": "function"
    },
    {
      "inputs": [
        {
          "internalType": "uint256",
          "name": "tokenId",
          "type": "uint256"
        }
      ],
      "name": "tokenURI",
      "outputs": [
        {
          "internalType": "string",
          "name": "",
          "type": "string"
        }
      ],
      "stateMutability": "view",
      "type": "function"
    },
    {
      "inputs": [
        {
          "internalType": "address",
          "name": "from",
          "type": "address"
        },
        {
          "internalType": "address",
          "name": "to",
          "type": "address"
        },
        {
          "internalType": "uint256",
          "name": "tokenId",
          "type": "uint256"
        }
      ],
      "name": "transferFrom",
      "outputs": [],
      "stateMutability": "nonpayable",
      "type": "function"
    },
    {
      "inputs": [
        {
          "internalType": "address",
          "name": "newOwner",
          "type": "address"
        }
      ],
      "name": "transferOwnership",
      "outputs": [],
      "stateMutability": "nonpayable",
      "type": "function"
    },
    {
      "inputs": [],
      "name": "unpause",
      "outputs": [],
      "stateMutability": "nonpayable",
      "type": "function"
    }
  ],
  "bytecode": "0x60806040523480156200001157600080fd5b50336040518060400160405280600d81526020017f446563656e74726164654e4654000000000000000000000000000000000000008152506040518060400160405280600481526020017f444e46540000000000000000000000000000000000000000000000000000000081525081600090816200009091906200048d565b508060019081620000a291906200048d565b505050600073ffffffffffffffffffffffffffffffffffffffff168173ffffffffffffffffffffffffffffffffffffffff16036200011a5760006040517f1e4fbdf7000000000000000000000000000000000000000000000000000000008152600401620001119190620005b9565b60405180910390fd5b6200012b816200014d60201b60201c565b506000600960146101000a81548160ff021916908315150217905550620005d6565b6000600960009054906101000a900473ffffffffffffffffffffffffffffffffffffffff16905081600960006101000a81548173ffffffffffffffffffffffffffffffffffffffff021916908373ffffffffffffffffffffffffffffffffffffffff1602179055508173ffffffffffffffffffffffffffffffffffffffff168173ffffffffffffffffffffffffffffffffffffffff167f8be0079c531659141344cd1fd0a4f28419497f9722a3daafe3b4186f6b6457e060405160405180910390a35050565b600081519050919050565b7f4e487b7100000000000000000000000000000000000000000000000000000000600052604160045260246000fd5b7f4e487b7100000000000000000000000000000000000000000000000000000000600052602260045260246000fd5b600060028204905060018216806200029557607f821691505b602082108103620002ab57620002aa6200024d565b5b50919050565b60008190508160005260206000209050919050565b60006020601f8301049050919050565b600082821b905092915050565b600060088302620003157fffffffffffffffffffffffffffffffffffffffffffffffffffffffffffffffff82620002d6565b620003218683620002d6565b95508019841693508086168417925050509392505050565b6000819050919050565b6000819050919050565b60006200036e62000368620003628462000339565b62000343565b62000339565b9050919050565b6000819050919050565b6200038a836200034d565b620003a2620003998262000375565b848454620002e3565b825550505050565b600090565b620003b9620003aa565b620003c68184846200037f565b505050565b5b81811015620003ee57620003e2600082620003af565b600181019050620003cc565b5050565b601f8211156200043d576200040781620002b1565b6200041284620002c6565b8101602085101562000422578190505b6200043a6200043185620002c6565b830182620003cb565b50505b505050565b600082821c905092915050565b6000620004626000198460080262000442565b1980831691505092915050565b60006200047d83836200044f565b9150826002028217905092915050565b620004988262000213565b67ffffffffffffffff811115620004b457620004b36200021e565b5b620004c082546200027c565b620004cd828285620003f2565b600060209050601f831160018114620005055760008415620004f0578287015190505b620004fc85826200046f565b8655506200056c565b601f1984166200051586620002b1565b60005b828110156200053f5784890151825560018201915060208501945060208101905062000518565b868310156200055f57848901516200055b601f8916826200044f565b8355505b6001600288020188555050505b505050505050565b600073ffffffffffffffffffffffffffffffffffffffff82169050919050565b6000620005a18262000574565b9050919050565b620005b38162000594565b82525050565b6000602082019050620005d06000830184620005a8565b92915050565b612e3e80620005e66000396000f3fe608060405234801561001057600080fd5b50600436106101375760003560e01c80636352211e116100b857806395d89b411161007c57806395d89b4114610329578063a22cb46514610347578063b88d4fde14610363578063c87b56dd1461037f578063e985e9c5146103af578063f2fde38b146103df57610137565b80636352211e1461029757806370a08231146102c7578063715018a6146102f75780638456cb59146103015780638da5cb5b1461030b57610137565b80632a55205a116100ff5780632a55205a146101f25780633758933f146102235780633f4ba83a1461025357806342842e0e1461025d5780635c975abb1461027957610137565b806301ffc9a71461013c57806306fdde031461016c578063081812fc1461018a578063095ea7b3146101ba57806323b872dd146101d6575b600080fd5b61015660048036038101906101519190612143565b6103fb565b604051610163919061218b565b60405180910390f35b61017461040d565b6040516101819190612236565b60405180910390f35b6101a4600480360381019061019f919061228e565b61049f565b6040516101b191906122fc565b60405180910390f35b6101d460048036038101906101cf9190612343565b6104bb565b005b6101f060048036038101906101eb9190612383565b6104d1565b005b61020c600480360381019061020791906123d6565b6105d3565b60405161021a929190612425565b60405180910390f35b61023d600480360381019061023891906125c7565b6107bd565b60405161024a9190612636565b60405180910390f35b61025b610809565b005b61027760048036038101906102729190612383565b61081b565b005b61028161083b565b60405161028e919061218b565b60405180910390f35b6102b160048036038101906102ac919061228e565b610852565b6040516102be91906122fc565b60405180910390f35b6102e160048036038101906102dc9190612651565b610864565b6040516102ee9190612636565b60405180910390f35b6102ff61091e565b005b610309610932565b005b610313610944565b60405161032091906122fc565b60405180910390f35b61033161096e565b60405161033e9190612236565b60405180910390f35b610361600480360381019061035c91906126aa565b610a00565b005b61037d6004803603810190610378919061278b565b610a16565b005b6103996004803603810190610394919061228e565b610a33565b6040516103a69190612236565b60405180910390f35b6103c960048036038101906103c4919061280e565b610b46565b6040516103d6919061218b565b60405180910390f35b6103f960048036038101906103f49190612651565b610bda565b005b600061040682610c60565b9050919050565b60606000805461041c9061287d565b80601f01602080910402602001604051908101604052809291908181526020018280546104489061287d565b80156104955780601f1061046a57610100808354040283529160200191610495565b820191906000526020600020905b81548152906001019060200180831161047857829003601f168201915b5050505050905090565b60006104aa82610cda565b506104b482610d62565b9050919050565b6104cd82826104c8610d9f565b610da7565b5050565b600073ffffffffffffffffffffffffffffffffffffffff168273ffffffffffffffffffffffffffffffffffffffff16036105435760006040517f64a0ae9200000000000000000000000000000000000000000000000000000000815260040161053a91906122fc565b60405180910390fd5b60006105578383610552610d9f565b610db9565b90508373ffffffffffffffffffffffffffffffffffffffff168173ffffffffffffffffffffffffffffffffffffffff16146105cd578382826040517f64283d7b0000000000000000000000000000000000000000000000000000000081526004016105c4939291906128ae565b60405180910390fd5b50505050565b6000806000600860008681526020019081526020016000206040518060400160405290816000820160009054906101000a900473ffffffffffffffffffffffffffffffffffffffff1673ffffffffffffffffffffffffffffffffffffffff1673ffffffffffffffffffffffffffffffffffffffff1681526020016000820160149054906101000a90046bffffffffffffffffffffffff166bffffffffffffffffffffffff166bffffffffffffffffffffffff16815250509050600073ffffffffffffffffffffffffffffffffffffffff16816000015173ffffffffffffffffffffffffffffffffffffffff16036107685760076040518060400160405290816000820160009054906101000a900473ffffffffffffffffffffffffffffffffffffffff1673ffffffffffffffffffffffffffffffffffffffff1673ffffffffffffffffffffffffffffffffffffffff1681526020016000820160149054906101000a90046bffffffffffffffffffffffff166bffffffffffffffffffffffff166bffffffffffffffffffffffff168152505090505b6000610772610fd3565b6bffffffffffffffffffffffff1682602001516bffffffffffffffffffffffff168661079e9190612914565b6107a89190612985565b90508160000151819350935050509250929050565b60006107c7610fdd565b6107d1600a61101e565b60006107dd600a611034565b90506107e98582611042565b6107f38185611060565b6107fe8186856110bc565b809150509392505050565b610811611274565b6108196112fb565b565b61083683838360405180602001604052806000815250610a16565b505050565b6000600960149054906101000a900460ff16905090565b600061085d82610cda565b9050919050565b60008073ffffffffffffffffffffffffffffffffffffffff168273ffffffffffffffffffffffffffffffffffffffff16036108d75760006040517f89c62b640000000000000000000000000000000000000000000000000000000081526004016108ce91906122fc565b60405180910390fd5b600360008373ffffffffffffffffffffffffffffffffffffffff1673ffffffffffffffffffffffffffffffffffffffff168152602001908152602001600020549050919050565b610926611274565b610930600061135e565b565b61093a611274565b610942611424565b565b6000600960009054906101000a900473ffffffffffffffffffffffffffffffffffffffff16905090565b60606001805461097d9061287d565b80601f01602080910402602001604051908101604052809291908181526020018280546109a99061287d565b80156109f65780601f106109cb576101008083540402835291602001916109f6565b820191906000526020600020905b8154815290600101906020018083116109d957829003601f168201915b5050505050905090565b610a12610a0b610d9f565b8383611487565b5050565b610a218484846104d1565b610a2d848484846115f6565b50505050565b6060610a3e82610cda565b506000600660008481526020019081526020016000208054610a5f9061287d565b80601f0160208091040260200160405190810160405280929190818152602001828054610a8b9061287d565b8015610ad85780601f10610aad57610100808354040283529160200191610ad8565b820191906000526020600020905b815481529060010190602001808311610abb57829003601f168201915b505050505090506000610ae96117ad565b90506000815103610afe578192505050610b41565b600082511115610b33578082604051602001610b1b9291906129f2565b60405160208183030381529060405292505050610b41565b610b3c846117c4565b925050505b919050565b6000600560008473ffffffffffffffffffffffffffffffffffffffff1673ffffffffffffffffffffffffffffffffffffffff16815260200190815260200160002060008373ffffffffffffffffffffffffffffffffffffffff1673ffffffffffffffffffffffffffffffffffffffff16815260200190815260200160002060009054906101000a900460ff16905092915050565b610be2611274565b600073ffffffffffffffffffffffffffffffffffffffff168173ffffffffffffffffffffffffffffffffffffffff1603610c545760006040517f1e4fbdf7000000000000000000000000000000000000000000000000000000008152600401610c4b91906122fc565b60405180910390fd5b610c5d8161135e565b50565b60007f2a55205a000000000000000000000000000000000000000000000000000000007bffffffffffffffffffffffffffffffffffffffffffffffffffffffff1916827bffffffffffffffffffffffffffffffffffffffffffffffffffffffff19161480610cd35750610cd28261182d565b5b9050919050565b600080610ce68361188e565b9050600073ffffffffffffffffffffffffffffffffffffffff168173ffffffffffffffffffffffffffffffffffffffff1603610d5957826040517f7e273289000000000000000000000000000000000000000000000000000000008152600401610d509190612636565b60405180910390fd5b80915050919050565b60006004600083815260200190815260200160002060009054906101000a900473ffffffffffffffffffffffffffffffffffffffff169050919050565b600033905090565b610db483838360016118cb565b505050565b600080610dc58461188e565b9050600073ffffffffffffffffffffffffffffffffffffffff168373ffffffffffffffffffffffffffffffffffffffff1614610e0757610e06818486611a90565b5b600073ffffffffffffffffffffffffffffffffffffffff168173ffffffffffffffffffffffffffffffffffffffff1614610e9857610e496000856000806118cb565b6001600360008373ffffffffffffffffffffffffffffffffffffffff1673ffffffffffffffffffffffffffffffffffffffff168152602001908152602001600020600082825403925050819055505b600073ffffffffffffffffffffffffffffffffffffffff168573ffffffffffffffffffffffffffffffffffffffff1614610f1b576001600360008773ffffffffffffffffffffffffffffffffffffffff1673ffffffffffffffffffffffffffffffffffffffff168152602001908152602001600020600082825401925050819055505b846002600086815260200190815260200160002060006101000a81548173ffffffffffffffffffffffffffffffffffffffff021916908373ffffffffffffffffffffffffffffffffffffffff160217905550838573ffffffffffffffffffffffffffffffffffffffff168273ffffffffffffffffffffffffffffffffffffffff167fddf252ad1be2c89b69c2b068fc378daa952ba7f163c4a11628f55a4df523b3ef60405160405180910390a4809150509392505050565b6000612710905090565b610fe561083b565b1561101c576040517fd93c066500000000000000000000000000000000000000000000000000000000815260040160405180910390fd5b565b6001816000016000828254019250508190555050565b600081600001549050919050565b61105c828260405180602001604052806000815250611b54565b5050565b806006600084815260200190815260200160002090816110809190612bc2565b507ff8e1a15aba9398e019f0b49df1a4fde98ee17ae345cb5f6b5e2c27f5033e8ce7826040516110b09190612636565b60405180910390a15050565b60006110c6610fd3565b6bffffffffffffffffffffffff16905080826bffffffffffffffffffffffff16111561112d578382826040517fdfd1fc1b00000000000000000000000000000000000000000000000000000000815260040161112493929190612cc5565b60405180910390fd5b600073ffffffffffffffffffffffffffffffffffffffff168373ffffffffffffffffffffffffffffffffffffffff16036111a1578360006040517f969f0852000000000000000000000000000000000000000000000000000000008152600401611198929190612cfc565b60405180910390fd5b60405180604001604052808473ffffffffffffffffffffffffffffffffffffffff168152602001836bffffffffffffffffffffffff168152506008600086815260200190815260200160002060008201518160000160006101000a81548173ffffffffffffffffffffffffffffffffffffffff021916908373ffffffffffffffffffffffffffffffffffffffff16021790555060208201518160000160146101000a8154816bffffffffffffffffffffffff02191690836bffffffffffffffffffffffff16021790555090505050505050565b61127c610d9f565b73ffffffffffffffffffffffffffffffffffffffff1661129a610944565b73ffffffffffffffffffffffffffffffffffffffff16146112f9576112bd610d9f565b6040517f118cdaa70000000000000000000000000000000000000000000000000000000081526004016112f091906122fc565b60405180910390fd5b565b611303611b70565b6000600960146101000a81548160ff0219169083151502179055507f5db9ee0a495bf2e6ff9c91a7834c1ba4fdd244a5e8aa4e537bd38aeae4b073aa611347610d9f565b60405161135491906122fc565b60405180910390a1565b6000600960009054906101000a900473ffffffffffffffffffffffffffffffffffffffff16905081600960006101000a81548173ffffffffffffffffffffffffffffffffffffffff021916908373ffffffffffffffffffffffffffffffffffffffff1602179055508173ffffffffffffffffffffffffffffffffffffffff168173ffffffffffffffffffffffffffffffffffffffff167f8be0079c531659141344cd1fd0a4f28419497f9722a3daafe3b4186f6b6457e060405160405180910390a35050565b61142c610fdd565b6001600960146101000a81548160ff0219169083151502179055507f62e78cea01bee320cd4e420270b5ea74000d11b0c9f74754ebdbfc544b05a258611470610d9f565b60405161147d91906122fc565b60405180910390a1565b600073ffffffffffffffffffffffffffffffffffffffff168273ffffffffffffffffffffffffffffffffffffffff16036114f857816040517f5b08ba180000000000000000000000000000000000000000000000000000000081526004016114ef91906122fc565b60405180910390fd5b80600560008573ffffffffffffffffffffffffffffffffffffffff1673ffffffffffffffffffffffffffffffffffffffff16815260200190815260200160002060008473ffffffffffffffffffffffffffffffffffffffff1673ffffffffffffffffffffffffffffffffffffffff16815260200190815260200160002060006101000a81548160ff0219169083151502179055508173ffffffffffffffffffffffffffffffffffffffff168373ffffffffffffffffffffffffffffffffffffffff167f17307eab39ab6107e8899845ad3d59bd9653f200f220920489ca2b5937696c31836040516115e9919061218b565b60405180910390a3505050565b60008373ffffffffffffffffffffffffffffffffffffffff163b11156117a7578273ffffffffffffffffffffffffffffffffffffffff1663150b7a0261163a610d9f565b8685856040518563ffffffff1660e01b815260040161165c9493929190612d7a565b6020604051808303816000875af192505050801561169857506040513d601f19601f820116820180604052508101906116959190612ddb565b60015b61171c573d80600081146116c8576040519150601f19603f3d011682016040523d82523d6000602084013e6116cd565b606091505b50600081510361171457836040517f64a0ae9200000000000000000000000000000000000000000000000000000000815260040161170b91906122fc565b60405180910390fd5b805181602001fd5b63150b7a0260e01b7bffffffffffffffffffffffffffffffffffffffffffffffffffffffff1916817bffffffffffffffffffffffffffffffffffffffffffffffffffffffff1916146117a557836040517f64a0ae9200000000000000000000000000000000000000000000000000000000815260040161179c91906122fc565b60405180910390fd5b505b50505050565b606060405180602001604052806000815250905090565b60606117cf82610cda565b5060006117da6117ad565b905060008151116117fa5760405180602001604052806000815250611825565b8061180484611bb0565b6040516020016118159291906129f2565b6040516020818303038152906040525b915050919050565b6000634906490660e01b7bffffffffffffffffffffffffffffffffffffffffffffffffffffffff1916827bffffffffffffffffffffffffffffffffffffffffffffffffffffffff19161480611887575061188682611c7e565b5b9050919050565b60006002600083815260200190815260200160002060009054906101000a900473ffffffffffffffffffffffffffffffffffffffff169050919050565b80806119045750600073ffffffffffffffffffffffffffffffffffffffff168273ffffffffffffffffffffffffffffffffffffffff1614155b15611a3857600061191484610cda565b9050600073ffffffffffffffffffffffffffffffffffffffff168373ffffffffffffffffffffffffffffffffffffffff161415801561197f57508273ffffffffffffffffffffffffffffffffffffffff168173ffffffffffffffffffffffffffffffffffffffff1614155b801561199257506119908184610b46565b155b156119d457826040517fa9fbf51f0000000000000000000000000000000000000000000000000000000081526004016119cb91906122fc565b60405180910390fd5b8115611a3657838573ffffffffffffffffffffffffffffffffffffffff168273ffffffffffffffffffffffffffffffffffffffff167f8c5be1e5ebec7d5bd14f71427d1e84f3dd0314c0f7b2291e5b200ac8c7c3b92560405160405180910390a45b505b836004600085815260200190815260200160002060006101000a81548173ffffffffffffffffffffffffffffffffffffffff021916908373ffffffffffffffffffffffffffffffffffffffff16021790555050505050565b611a9b838383611d60565b611b4f57600073ffffffffffffffffffffffffffffffffffffffff168373ffffffffffffffffffffffffffffffffffffffff1603611b1057806040517f7e273289000000000000000000000000000000000000000000000000000000008152600401611b079190612636565b60405180910390fd5b81816040517f177e802f000000000000000000000000000000000000000000000000000000008152600401611b46929190612425565b60405180910390fd5b505050565b611b5e8383611e21565b611b6b60008484846115f6565b505050565b611b7861083b565b611bae576040517f8dfc202b00000000000000000000000000000000000000000000000000000000815260040160405180910390fd5b565b606060006001611bbf84611f1a565b01905060008167ffffffffffffffff811115611bde57611bdd612458565b5b6040519080825280601f01601f191660200182016040528015611c105781602001600182028036833780820191505090505b509050600082602001820190505b600115611c73578080600190039150507f3031323334353637383961626364656600000000000000000000000000000000600a86061a8153600a8581611c6757611c66612956565b5b04945060008503611c1e575b819350505050919050565b60007f80ac58cd000000000000000000000000000000000000000000000000000000007bffffffffffffffffffffffffffffffffffffffffffffffffffffffff1916827bffffffffffffffffffffffffffffffffffffffffffffffffffffffff19161480611d4957507f5b5e139f000000000000000000000000000000000000000000000000000000007bffffffffffffffffffffffffffffffffffffffffffffffffffffffff1916827bffffffffffffffffffffffffffffffffffffffffffffffffffffffff1916145b80611d595750611d588261206d565b5b9050919050565b60008073ffffffffffffffffffffffffffffffffffffffff168373ffffffffffffffffffffffffffffffffffffffff1614158015611e1857508273ffffffffffffffffffffffffffffffffffffffff168473ffffffffffffffffffffffffffffffffffffffff161480611dd95750611dd88484610b46565b5b80611e1757508273ffffffffffffffffffffffffffffffffffffffff16611dff83610d62565b73ffffffffffffffffffffffffffffffffffffffff16145b5b90509392505050565b600073ffffffffffffffffffffffffffffffffffffffff168273ffffffffffffffffffffffffffffffffffffffff1603611e935760006040517f64a0ae92000000000000000000000000000000000000000000000000000000008152600401611e8a91906122fc565b60405180910390fd5b6000611ea183836000610db9565b9050600073ffffffffffffffffffffffffffffffffffffffff168173ffffffffffffffffffffffffffffffffffffffff1614611f155760006040517f73c6ac6e000000000000000000000000000000000000000000000000000000008152600401611f0c91906122fc565b60405180910390fd5b505050565b600080600090507a184f03e93ff9f4daa797ed6e38ed64bf6a1f0100000000000000008310611f78577a184f03e93ff9f4daa797ed6e38ed64bf6a1f0100000000000000008381611f6e57611f6d612956565b5b0492506040810190505b6d04ee2d6d415b85acef81000000008310611fb5576d04ee2d6d415b85acef81000000008381611fab57611faa612956565b5b0492506020810190505b662386f26fc100008310611fe457662386f26fc100008381611fda57611fd9612956565b5b0492506010810190505b6305f5e100831061200d576305f5e100838161200357612002612956565b5b0492506008810190505b612710831061203257612710838161202857612027612956565b5b0492506004810190505b60648310612055576064838161204b5761204a612956565b5b0492506002810190505b600a8310612064576001810190505b80915050919050565b60007f01ffc9a7000000000000000000000000000000000000000000000000000000007bffffffffffffffffffffffffffffffffffffffffffffffffffffffff1916827bffffffffffffffffffffffffffffffffffffffffffffffffffffffff1916149050919050565b6000604051905090565b600080fd5b600080fd5b60007fffffffff0000000000000000000000000000000000000000000000000000000082169050919050565b612120816120eb565b811461212b57600080fd5b50565b60008135905061213d81612117565b92915050565b600060208284031215612159576121586120e1565b5b60006121678482850161212e565b91505092915050565b60008115159050919050565b61218581612170565b82525050565b60006020820190506121a0600083018461217c565b92915050565b600081519050919050565b600082825260208201905092915050565b60005b838110156121e05780820151818401526020810190506121c5565b60008484015250505050565b6000601f19601f8301169050919050565b6000612208826121a6565b61221281856121b1565b93506122228185602086016121c2565b61222b816121ec565b840191505092915050565b6000602082019050818103600083015261225081846121fd565b905092915050565b6000819050919050565b61226b81612258565b811461227657600080fd5b50565b60008135905061228881612262565b92915050565b6000602082840312156122a4576122a36120e1565b5b60006122b284828501612279565b91505092915050565b600073ffffffffffffffffffffffffffffffffffffffff82169050919050565b60006122e6826122bb565b9050919050565b6122f6816122db565b82525050565b600060208201905061231160008301846122ed565b92915050565b612320816122db565b811461232b57600080fd5b50565b60008135905061233d81612317565b92915050565b6000806040838503121561235a576123596120e1565b5b60006123688582860161232e565b925050602061237985828601612279565b9150509250929050565b60008060006060848603121561239c5761239b6120e1565b5b60006123aa8682870161232e565b93505060206123bb8682870161232e565b92505060406123cc86828701612279565b9150509250925092565b600080604083850312156123ed576123ec6120e1565b5b60006123fb85828601612279565b925050602061240c85828601612279565b9150509250929050565b61241f81612258565b82525050565b600060408201905061243a60008301856122ed565b6124476020830184612416565b9392505050565b600080fd5b600080fd5b7f4e487b7100000000000000000000000000000000000000000000000000000000600052604160045260246000fd5b612490826121ec565b810181811067ffffffffffffffff821117156124af576124ae612458565b5b80604052505050565b60006124c26120d7565b90506124ce8282612487565b919050565b600067ffffffffffffffff8211156124ee576124ed612458565b5b6124f7826121ec565b9050602081019050919050565b82818337600083830152505050565b6000612526612521846124d3565b6124b8565b90508281526020810184848401111561254257612541612453565b5b61254d848285612504565b509392505050565b600082601f83011261256a5761256961244e565b5b813561257a848260208601612513565b91505092915050565b60006bffffffffffffffffffffffff82169050919050565b6125a481612583565b81146125af57600080fd5b50565b6000813590506125c18161259b565b92915050565b6000806000606084860312156125e0576125df6120e1565b5b60006125ee8682870161232e565b935050602084013567ffffffffffffffff81111561260f5761260e6120e6565b5b61261b86828701612555565b925050604061262c868287016125b2565b9150509250925092565b600060208201905061264b6000830184612416565b92915050565b600060208284031215612667576126666120e1565b5b60006126758482850161232e565b91505092915050565b61268781612170565b811461269257600080fd5b50565b6000813590506126a48161267e565b92915050565b600080604083850312156126c1576126c06120e1565b5b60006126cf8582860161232e565b92505060206126e085828601612695565b9150509250929050565b600067ffffffffffffffff82111561270557612704612458565b5b61270e826121ec565b9050602081019050919050565b600061272e612729846126ea565b6124b8565b90508281526020810184848401111561274a57612749612453565b5b612755848285612504565b509392505050565b600082601f8301126127725761277161244e565b5b813561278284826020860161271b565b91505092915050565b600080600080608085870312156127a5576127a46120e1565b5b60006127b38782880161232e565b94505060206127c48782880161232e565b93505060406127d587828801612279565b925050606085013567ffffffffffffffff8111156127f6576127f56120e6565b5b6128028782880161275d565b91505092959194509250565b60008060408385031215612825576128246120e1565b5b60006128338582860161232e565b92505060206128448582860161232e565b9150509250929050565b7f4e487b7100000000000000000000000000000000000000000000000000000000600052602260045260246000fd5b6000600282049050600182168061289557607f821691505b6020821081036128a8576128a761284e565b5b50919050565b60006060820190506128c360008301866122ed565b6128d06020830185612416565b6128dd60408301846122ed565b949350505050565b7f4e487b7100000000000000000000000000000000000000000000000000000000600052601160045260246000fd5b600061291f82612258565b915061292a83612258565b925082820261293881612258565b9150828204841483151761294f5761294e6128e5565b5b5092915050565b7f4e487b7100000000000000000000000000000000000000000000000000000000600052601260045260246000fd5b600061299082612258565b915061299b83612258565b9250826129ab576129aa612956565b5b828204905092915050565b600081905092915050565b60006129cc826121a6565b6129d681856129b6565b93506129e68185602086016121c2565b80840191505092915050565b60006129fe82856129c1565b9150612a0a82846129c1565b91508190509392505050565b60008190508160005260206000209050919050565b60006020601f8301049050919050565b600082821b905092915050565b600060088302612a787fffffffffffffffffffffffffffffffffffffffffffffffffffffffffffffffff82612a3b565b612a828683612a3b565b95508019841693508086168417925050509392505050565b6000819050919050565b6000612abf612aba612ab584612258565b612a9a565b612258565b9050919050565b6000819050919050565b612ad983612aa4565b612aed612ae582612ac6565b848454612a48565b825550505050565b600090565b612b02612af5565b612b0d818484612ad0565b505050565b5b81811015612b3157612b26600082612afa565b600181019050612b13565b5050565b601f821115612b7657612b4781612a16565b612b5084612a2b565b81016020851015612b5f578190505b612b73612b6b85612a2b565b830182612b12565b50505b505050565b600082821c905092915050565b6000612b9960001984600802612b7b565b1980831691505092915050565b6000612bb28383612b88565b9150826002028217905092915050565b612bcb826121a6565b67ffffffffffffffff811115612be457612be3612458565b5b612bee825461287d565b612bf9828285612b35565b600060209050601f831160018114612c2c5760008415612c1a578287015190505b612c248582612ba6565b865550612c8c565b601f198416612c3a86612a16565b60005b82811015612c6257848901518255600182019150602085019450602081019050612c3d565b86831015612c7f5784890151612c7b601f891682612b88565b8355505b6001600288020188555050505b505050505050565b6000612caf612caa612ca584612583565b612a9a565b612258565b9050919050565b612cbf81612c94565b82525050565b6000606082019050612cda6000830186612416565b612ce76020830185612cb6565b612cf46040830184612416565b949350505050565b6000604082019050612d116000830185612416565b612d1e60208301846122ed565b9392505050565b600081519050919050565b600082825260208201905092915050565b6000612d4c82612d25565b612d568185612d30565b9350612d668185602086016121c2565b612d6f816121ec565b840191505092915050565b6000608082019050612d8f60008301876122ed565b612d9c60208301866122ed565b612da96040830185612416565b8181036060830152612dbb8184612d41565b905095945050505050565b600081519050612dd581612117565b92915050565b600060208284031215612df157612df06120e1565b5b6000612dff84828501612dc6565b9150509291505056fea26469706673582212205913b4ee927f8f8c577ca8b9decc52845bf378cac191ae65dce98515a8c6550664736f6c63430008180033",
  "linkReferences": {},
  "deployedLinkReferences": {}
}